:03000000020030CB
:04000B0012010D329F
:04001B001202173284
:1000300075891175A88A758C00758A00758DFF7594
:100040008BFE78017A107F0112012112011AD2A1D0
:100050001172C28ED28CC28CEF9401600894016040
:1000600008940160081198800611B4800211D4022E
:100070000050D28E31088590F074FF95F0B8010AD7
:100080007800FD75F01084FB800DFE9D40047C100F
:100090008005EE8BF084FC22EC94105010BC00061E
:1000A0007A107C01800474109CFA12012112019CC8
:1000B00012011A22EC941040067A017C10800BBCCD
:1000C00000047A10800774109CFA12019C1201211E
:1000D00012011A22EC94107A00501EBC00047A100F
:1000E000801F74109C75F00284FAE5F02CFCEABACB
:1000F00000047C10800312012112019CFA9401403B
:100100000312012112011A2279FFD9FE220FBF0426
:10011000027F01758C00758A00327971C2A2D9FE06
:1001200022D2A2C2A200D2A2C2A200D2A2C2A20025
:10013000D2A2C2A200D2A200C2A2D2A200C2A2D265
:10014000A2C2A200D2A2C2A200D2A2C2A200D2A285
:10015000C2A200D2A2C2A200D2A2C2A200D2A20017
:10016000C2A2D2A200C2A2D2A2C2A200D2A2C2A2A3
:1001700000D2A2C2A200D2A2C2A200D2A2C2A200F7
:10018000D2A2C2A200D2A200C2A2D2A200C2A2D215
:10019000A2C2A200D2A2C2A200DA8622D2A2C2A227
:1001A00000D2A2C2A200D2A2C2A200D2A2C2A200C7
:1001B000D2A2C2A200D2A2C2A200D2A2C2A200D2E5
:1001C000A2C2A200D2A2C2A200D2A2C2A200D2A205
:1001D000C2A200D2A2C2A200D2A2C2A200D2A2C2D5
:1001E000A200D2A2C2A200D2A2C2A200D2A2C2A2E5
:1001F00000D2A2C2A200D2A2C2A200D2A2C2A20077
:10020000D2A2C2A200D2A2C2A200D2A2C2A200D294
:10021000A2C2A200DC8622B2A3758DFF758BFE22DE
:00000001FF
