:03000000020030CB
:04001B001202243277
:04002B001201083284
:1000300075891175A8A8758DFF758BFD75CD007537
:10004000CC0078017A107F0112012E120127117065
:10005000C28ED2CAC2CAEF940160089401600894AB
:100060000160081198800611B4800211D402004E7C
:10007000D28ED2A131178590F074FF95F0B8010AA5
:100080007800FD75F01084FB800DFE9D40047C100F
:100090008005EE8BF084FC22EC94105010BC00061E
:1000A0007A107C01800474109CFA12012E1201A9AE
:1000B00012012722EC941040067A017C10800BBCC0
:1000C00000047A10800774109CFA1201A912012E04
:1000D00012012722EC94107A00501EBC00047A1002
:1000E000801F74109C75F00284FAE5F02CFCEABACB
:1000F00000047C10800312012E1201A9FA94014021
:100100000312012E120127220FBF04027F0175CDB9
:100110000075CC00C2CF32758CFE758AF9D28C3056
:100120008DFDC28DC28C227971C2A2D9FE22D2A2CB
:10013000C2A200D2A2C2A200D2A2C2A200D2A2C275
:10014000A200D2A200C2A2D2A200C2A2D2A2C2A285
:0501500000D2A2C2A2D2
:1001550000D2A2C2A200D2A2C2A200D2A2C2A20012
:10016500D2A2C2A200D2A200C2A2D2A200C2A2D230
:10017500A2C2A200D2A2C2A200D2A2C2A200D2A250
:10018500C2A200D2A2C2A200D2A2C2A200D2A200E2
:10019500C2A2D2A200C2A2D2A2C2A200D2A2C2A26E
:1001A50000DA8622D2A2C2A200D2A2C2A200D2A2A4
:1001B500C2A200D2A2C2A200D2A2C2A200D2A2C2F0
:1001C500A200D2A2C2A200D2A2C2A200D2A2C2A200
:1001D50000D2A2C2A200D2A2C2A200D2A2C2A20092
:1001E500D2A2C2A200D2A2C2A200D2A2C2A200D2B0
:1001F500A2C2A200D2A2C2A200D2A2C2A200D2A2D0
:10020500C2A200D2A2C2A200D2A2C2A200D2A2C29F
:10021500A200D2A2C2A200D2A2C2A200DC862220E3
:0F022500A304D2A38002C2A3758DFF758BFD22A7
:00000001FF
