:03000000020040BB
:040003001210BE32E7
:040013001210C732CE
:04001B001210573236
:0A0040003F065B4F666D7D077F6F82
:10100000780079007A007B007C3F7D3F7E3F7F3F08
:1010100075A88D75B801D288D28A758911758D0031
:10102000758B00D28E8F80C2A01147D2A08E80C255
:10103000A11147D2A18D80C2A21147D2A28C80C239
:10104000A31147D2A380DE758CEC758A78D28C30E0
:101050008DFDC28DC28C22E5F02401F5F0B4103371
:1010600075F00008B80A337800900040E893FC0956
:10107000B90A307900900040E993FD0ABA0A2D7A46
:1010800000900040EA93FE0BBB0A2A7B00900040D0
:10109000EB93FF758D00758B0022900040E893FC68
:1010A000021093900040E993FD021093900040EAF3
:1010B00093FE021093900040EB93FF021093208E5A
:1010C00003D28E22C28E2220A49918B8FFCC7809B0
:1010D000900040E893FC19B9FFC97909900040E9F4
:1010E00093FD1ABAFFC67A09900040EA93FE1BBB33
:0B10F000FFC37B09900040EB93FF2240
:00000001FF
